:100000000C94E4010C941C020C941C020C941C0231
:100010000C941C020C941C020C941C020C941C02E8
:100020000C941C020C941C020C946C280C943F2918
:100030000C94C4220C941C020C941C020C941C0200
:100040000C941C020C941C020C941C020C941C02B8
:100050000C941C020C945C230C941C020C941C0247
:100060000C941C020C941C020C941C020C941C0298
:100070000C941C020C941C020C941C020C941C0288
:100080000C941C020C941C020C941C020C941C0278
:100090000C941C020C941C020C941C020C941C0268
:1000A0000C941C020C941C020C941C0256711071CE
:1000B000127100001571177119710000000055715F
:1000C0000F71117113711471167118711A7100008A
:1000D00000001C711E710000217123712571000048
:1000E000000000001B711D711F71207122712471AD
:1000F0002671277100000000000000002A2B280054
:1001000000000000000000000000000000000029C6
:10011000000000002C1E3420212224342627252E06
:10012000362D3738271E1F2021222324252633333E
:10013000362E37381F0405060708090A0B0C0D0E6A
:100140000F101112131415161718191A1B1C1D2F36
:100150003130232D350405060708090A0B0C0D0E56
:100160000F101112131415161718191A1B1C1D2F16
:100170003130354C0000000000000000000000009D
:10018000000000000000000000000000000000006F
:1001900000000000000000007E0F00D4FFFFFFC73A
:1001A0000000007818037300750069006B0061009F
:1001B000320037006D0065006C006F000000160310
:1001C0007300750069006B006100670069006B00D7
:1001D00065006E000000040309040902BF00050168
:1001E00000A0FA0904000001030101000921110126
:1001F00000012244000705810308000109040100F1
:10020000020300000009211101000122220007055C
:1002100082032000010705030320000109040200F6
:10022000010300000009211101000122B6000705A9
:100230008403200001080B030201010000090403EC
:100240000000010100000924010001090001040966
:10025000040400020103000007240100014100061C
:100260002402010100062402020200092403010302
:10027000010201000924030204010101000905062D
:100280000240000500000525010101090585024025
:100290000005000005250101031201000200000015
:1002A00008484B01021001010200010660FF0961CC
:1002B000A1010962150026FF009520750881020939
:1002C00063150026FF00952075089102C0050109FD
:1002D00002A10185020901A10005091901290815DA
:1002E00000250195087501810205010930093115C4
:1002F00081257F95027508810609381581257F952E
:100300000175088106050C0A38021581257F9501C3
:1003100075088106C0C005010980A1018503190186
:100320002AB700150126B700950175108100C00598
:100330000C0901A101850419012AA002150126A0BA
:1003400002950175108100C005010906A10185060D
:10035000050719E029E715002501950875018102B7
:100360000507190029EF1500250195F07501810297
:100370000508190129059505750191029501750377
:100380009101C005010906A101050719E029E7153A
:100390000025019508750181029501750881010507
:1003A00007190029FF150026FF0095067508810032
:1003B000050819012905150025019505750191020A
:1003C000950175039101C00011241FBECFEFDAE043
:1003D000DEBFCDBF04B603FE18C080910404909127
:1003E0000504A0910604B09107048730904BA74004
:1003F000B04B59F4109204041092050410920604B4
:1004000010920704E0E0F8E3099511E0A0E0B1E004
:10041000E2EFFBE502C005900D92A43BB107D9F7CE
:1004200024E0A4EBB1E001C01D92A430B207E1F7D3
:100430000E94D2110C94572D0C940000811112C00F
:10044000643080F4493070F4E42FF0E089E0689F74
:10045000E00DF11D1124EE0FFF1FE455FF4F8591B4
:100460009491089581E090E0089581E008950E94BC
:100470003502089581E008950E94350208950E9492
:100480003C02089508950E9442020895A6E0B0E05B
:10049000ECE4F2E00C949E2B49835A839E833091C6
:1004A000BB0189819A8131111AC03E81332399F0B1
:1004B000222389F00E94CB07182F682F89819A8107
:1004C0000E94A70769817A81812F0E94F00E2696EB
:1004D000E3E00C94BA2B0E94B907182FF3CF0E94C7
:1004E000CB0769817A81F1CFFC01262F40815181B0
:1004F00062817381848195810E9446020895CF9321
:10050000DF93D82FC92F61E00E9474026D2F7C2FDA
:100510000E943702DF91CF910895CF93DF93D82FB8
:10052000C92F60E00E9474026D2F7C2F0E9443024D
:10053000DF91CF91089581E008950E949B02089574
:10054000CF93C82F0E949B068C2F0E949D022FEFF5
:1005500084E39CE0215080409040E1F700C000001F
:10056000CF91089581E00E94A0020E948023089507
:1005700080E00E94A0020E94A42308950F931F937D
:10058000CF93DF938C0161E00E947402EC01B8010B
:100590000E94831F882309F449C0B801CE010E943C
:1005A0003F02882309F442C0B801CE010E94991588
:1005B0008823E1F1B801CE010E94911E8823B1F198
:1005C000B801CE010E94B619882381F1B801CE018D
:1005D0000E948B19882351F1B801CE010E94D21ECE
:1005E000882321F1F8018581882381F0CA35FCE751
:1005F000DF0739F178F4C130ECE7DE07F9F0C330FA
:10060000FCE7DF07C9F0C115DC4771F0C8010E94A3
:100610003A020DC0CB35ECE7DE07B1F0CC35DC4754
:10062000A9F70E941D0CF2CF0E94B20280E0DF9178
:10063000CF911F910F9108950E942F0C0E94B80234
:10064000F5CF0E94270CE2CF0E942B0CDFCF0E9437
:10065000A0220E94470308950E944B030E94A522F6
:10066000089581E008950895CF93DF93D82F0E94D5
:100670003103C82F882319F08D2F0E9433038C2F4C
:10068000DF91CF91089508950E943403089580E08A
:100690000E94440308950E94DC200E9444030895B0
:1006A000CF930E94DC20C82F8091B6018C1779F07F
:1006B000C093B6010E9430236093B7017093B801D4
:1006C0008093B9019093BA018C2F0E944403CF917B
:1006D0000895ADE0B0E0EFE6F3E00C949F2B48877F
:1006E00059876A877B878C879D8791110E94280B89
:1006F0001F8286E0FE013896DE01119601900D9270
:100700008A95E1F78D8181110DC029813A814B8154
:100710005C816D817E818F810E946E0A2D96E2E060
:100720000C94BB2BCE0101960E947F028111EDCF6C
:10073000F5CFFC018481813021F4808191810E9478
:10074000F4070895662329F00E94241B0E94E51BEC
:1007500008950E946D1BFACFCF93C82F882399F07C
:100760008CEF8C0F813A88F48C2F0E947F21882394
:1007700029F08C2F0E9424220E94C00B8C2F0E94F3
:100780000D220E94C00BCF91089580E28C0F88301B
:1007900048F4C77081E001C0880FCA95EAF70E944B
:1007A000090BEFCF8BE58C0F833038F42C2F2452BC
:1007B000330BC9010E941221E6CFE8E5EC0FEB31C3
:1007C00050F4F0E0EE0FFF1FE45DFE4F8081918159
:1007D0000E943821D8CF83E38C0F8331A0F661E0EB
:1007E0008C2F0E94A203CFCF882381F19CEF980F1A
:1007F000913A28F40E9424220E94C00B089590E2AE
:10080000980F983050F4877091E001C0990F8A9545
:10081000EAF7892F0E940F0BEFCF9BE5980F9330DB
:1008200028F480E090E00E941221089598E5980F46
:100830009B3128F480E090E00E943821089593E3F2
:10084000980F933118F460E00E94A20308951F935B
:10085000CF93DF93182FEB010E94AC03209739F45C
:10086000812F0E94F403DF91CF911F9108958FE9AA
:100870009FE00197F1F700C000002197EFCF60E003
:1008800070E0893311F460E570E00E942704089558
:10089000882321F00E94090B0E94C00B0895882331
:1008A00021F00E940F0B0E94C00B0895A0E0B0E061
:1008B000ECE5F4E00C94992B6C01D62FC72FFC01CA
:1008C0001581068102950F700E94FE0AE82E88238A
:1008D000F9F0E12E1123E1F08C2F807F803461F05C
:1008E00080E28D0F8830F0F08C2F807E803221F4F2
:1008F000D230C0F00023B1F08091ED0282FF12C02F
:1009000082E00E94F00B0E94FE0A91E0E82EE926A8
:10091000EC2FE295EF70C03CB0F5F0E0E75AF24DF5
:100920000C94822BE12CF4CF0C2F0F70C03110F0FF
:100930000295007F112399F0002359F080E28D0F7A
:10094000883010F0D11107C0802F0E94090B0E943F
:10095000C00B8D2F51C0802F0E941A0BF8CF8D2F06
:100960000E94F403002379F080E28D0F883010F0AC
:10097000D11104C0802F0E940F0B03C0802F0E9452
:10098000200B0E94C00BEE2089F00E94FA0A80FD25
:100990000DC0F60115820E94F40A0E941507C601D7
:1009A0000E9462060E94F40A0E942107CDB7DEB7BA
:1009B000E8E00C94B52BFC2FFF70FF2EC07FC032F7
:1009C00019F0F29480EFF822DD2341F0D130D1F11B
:1009D000112309F444C00023F1F0BBCF8091ED0254
:1009E00082FD15C0112359F0FF2029F08F2D0E94A0
:1009F000090B0E94C00B80E00E94AC03C4CF80E0D2
:100A00000E94F403FF2009F4BECF8F2DB4CF112331
:100A100069F0011104C08F2D0E944804B4CF013049
:100A200009F0B1CF8F2D0E94400BADCF0111ABCF9C
:100A30008F2D0E944F048F2D0E944C0B8F2D0E94F2
:100A40002F0BA1CF112321F0063008F09CCFE3CF6C
:100A5000053008F098CF8F2D0E944F0494CF0023CB
:100A6000D1F3D93349F42FEF87EE93E02150804042
:100A70009040E1F700C000008D2F0E94F40383CF67
:100A80008C2F869586958370882369F0813009F0D4
:100A90007ACF8D2F9C2F9370111102C080E090E0CF
:100AA0000E94382170CF8D2F9C2F9370111102C09E
:100AB00080E090E00E94122166CF612F8D2F0E946E
:100AC000A20361CF8C2F8370811134C0111124C017
:100AD0004D2F429546954770440F440F8D2F8F70D0
:100AE000042E01C0880F0A94EAF7D071DD2341F08B
:100AF0002FE030E001C0220F4A95EAF7D22FD095BF
:100B0000C695C695C3708D2BC23071F0C33079F095
:100B1000C13039F00E94F1060E94DC200E9444039B
:100B200032CF0E94EB06F8CF0E94F706F5CF0E9465
:100B3000E806F2CF112339F1C0FFEECF4D2F4295D9
:100B400046954770440F440F8D2F8F70042E01C0BF
:100B5000880F0A94EAF7D071DD2341F02FE030E0EE
:100B600001C0220F4A95EAF7D22FD095C695C695B7
:100B7000C3708D2BC23069F0C33071F0C13031F0D9
:100B80000E944307C9CF823038F2D8CF0E943D0778
:100B9000C3CF0E944907C0CF0E940307BDCFCF70CB
:100BA000112339F08C2F0E9415078D2F0E944804C5
:100BB000B3CF8D2F0E944F048C2F0E942107ACCF02
:100BC000D23F31F170F4D03FB9F0D13FB1F11123F0
:100BD00009F44EC0002309F448C08D2F0E94AC03D5
:100BE0009BCFD33FE1F0D43F21F11111F3CF01119D
:100BF0004DC08C2F8F71E1CF112341F0053008F0EB
:100C00008BCF8C2F8F710E94310786CF0530F7CFA5
:100C10008C2F8F711111D1CF0E9415077DCF112319
:100C200029F08C2F8F710E940C0776CF0E94080745
:100C300073CF8091ED0282FD06C08C2F8F7111233E
:100C400009F4BBCFE9CF112331F063E08C2F8F7112
:100C50000E94D20B61CF81E00E94F00B023008F4B9
:100C60005BCF82E00E94F00B57CF8C2F8F71D4CFD7
:100C7000002309F4BECFD93349F4EFEFF7EE23E0B8
:100C8000E150F0402040E1F700C000008D2F0E94AD
:100C9000F40342CF0F931F93CF93DF93EC0168814E
:100CA00079818D810E9401088C010E944F070E946A
:100CB000E706B801CE010E945604DF91CF911F9143
:100CC0000F910895CF93DF93EC018C81882399F0E5
:100CD000CE010E94BE02811111C00E94FE0A88232B
:100CE00051F08D81882339F08091ED0282FF03C09D
:100CF00082E00E94F00BDF91CF910895CE010E9417
:100D00004A06CE010E948D02F6CF80E090E00E945C
:100D1000122180E090E00E9438210E94280B0E945E
:100D2000C00B0E94021C0E94E51B08950E943B22FA
:100D30000E94850608950E94170B0E94960608954A
:100D4000282F92959F70963091F060F4925F9F707B
:100D5000923030F481E0203F79F030F4283E30F0DA
:100D600080E008959A5FF3CF243FD1F7089581E0A2
:100D7000283EE0F3213FF9CF0895FC0184818823C8
:100D800039F0808191810E94F4070E94A0060895A5
:100D900080E00895A6E0B0E0E0EDF6E00C949F2B33
:100DA0002696E2E00C94BB2BA7E0B0E0EAEDF6E07B
:100DB0000C949F2B2796E2E00C94BB2B08950E9485
:100DC000DE0608950E94DF068093CC010895089501
:100DD0000E94E20608959091CC01892B0E94E206C0
:100DE00008959091CC0189230E94E2060895909184
:100DF000CC0189270E94E20608950E94DE0608952C
:100E00000E94FD0608950E9400078093CB0108957B
:100E100080E00E940307089591E001C0990F8A9530
:100E2000EAF7892F0E940307089521E030E001C00E
:100E3000220F8A95EAF78091CB01822B0E9403074B
:100E4000089521E030E0A90102C0440F551F8A95A2
:100E5000E2F7CA0180959091CB0189230E94030794
:100E6000089521E030E001C0220F8A95EAF78091D1
:100E7000CB0182270E94030708959091CB01892B13
:100E80000E94030708959091CB0189230E940307D4
:100E900008959091CB0189270E9403070895089532
:100EA0009B01677091E001C0990F6A95EAF763E0D2
:100EB000369527956A95E1F7B901660F771F260FDA
:100EC000371FFA01E20FF31F40E050E0682F70E097
:100ED0008191DF0111979B01042E02C03695279561
:100EE0000A94E2F7217021952827292328272C939B
:100EF0004F5F5F4F4330510559F708959C01A82F6C
:100F0000A77083E0369527958A95E1F7C901880F88
:100F1000991F820F931FFB01E80FF91F40E050E07B
:100F200080E0219130E00A2E02C0369527950A9480
:100F3000E2F721703327042E01C0220F0A94EAF74A
:100F4000822B4F5F5F4F4330510559F70895282F8B
:100F5000862F943068F4293058F4622F70E029E02D
:100F6000929F600D711D11244CEB51E00E945007BF
:100F70000895292F943068F4893058F490E06CEB90
:100F800071E039E0239F800D911D11240E947E079E
:100F9000089580E00895A0E0B0E0E1EDF7E00C9462
:100FA0009A2B7C010091CB018091CC01082BC3E0EE
:100FB000D0E010E0C8010C2E02C0959587950A94E8
:100FC000E2F780FD09C02197A8F7D12C8D2DCDB770
:100FD000DEB7E7E00C94B62BDC2EB7018C2F0E9415
:100FE000FC0E019781F3F2CFCF93DF93D82FC92F57
:100FF0000E94CB076D2F7C2F0E94FC0EDF91CF91BA
:1010000008951F93CF93DF93162FD72F9091BB0195
:10101000992341F0862F972F0E94F407DF91CF91FB
:101020001F910895882381F0862F972F0E94CB0768
:10103000C82F682F812F9D2F0E94A707612F7D2F1A
:101040008C2F0E94FC0EEACF862F972F0E94B907A3
:10105000C82FF4CFE1E0F0E0DF0102C0AA0FBB1F10
:101060006A95E2F7BD01DF0102C0AA0FBB1F4A95D6
:10107000E2F76A2B01C0EE0F2A95EAF7962F982324
:10108000961302C08E2B0895E0958E230895242F89
:10109000462F682F8091CB010E942A080E940307E7
:1010A00008950F931F93CF93E091CD01C7E08091F6
:1010B000CE018E1304C0CF911F910F9108950E2F72
:1010C00010E0CE9FF0011124E153FE4F20813181C9
:1010D000428153816481758186810E94D406F80122
:1010E0003196E770E4CF20910702309108024091D9
:1010F000090250910A0260910B0270910C028091DA
:101100000D020E94D406089580910D02803178F47A
:1011100080910C02882359F0E091CD012091CE01FD
:10112000309108024091070257E02E1301C0089544
:101130006E2F70E05E9FF0011124DF01A153BE4FBE
:1011400014968C911497882361F111968C911197C4
:10115000831327C08C91841324C015968C91159706
:1011600081111FC012968D919C91A0910902B0919E
:101170000A028A1B9B0B883C910598F480910D0212
:101180008F70806180930D02EB52FE4F80818F70D3
:101190008061808387E092E00E9462060E9451088D
:1011A0000895FB013196E770C0CFE091CD01909199
:1011B000CE0127E0E91302C080E00895AE2FB0E031
:1011C0002E9FF0011124E153FE4F3181361306C0EA
:1011D0003081381303C03581341304C0FD013196CA
:1011E000E770E8CF81E008958F929F92AF92BF920F
:1011F000DF92EF92FF920F931F93CF93DF93CDB7C0
:10120000DEB72D970FB6F894DEBF0FBECDBF8C01B1
:1012100086E0F801DE01189601900D928A95E1F7BB
:10122000F801E080F580A280B380848197E0892E68
:1012300092E0992E90910B0291111BC0882309F422
:10124000FCC0FF2009F43DC1C8010E94BD068823EF
:1012500009F437C187E0F801D40101900D928A9515
:10126000E1F7C4010E9499030E9484080E94730858
:10127000E4C0D0900C022091090230910A02A5012D
:10128000421B530BDD2009F4DBC0483C510508F03C
:10129000A6C0882309F4D1C0909108029180809162
:1012A0000D02803108F06BC0991228C0909107029E
:1012B0009E1124C0F1105DC08F70806180930D027B
:1012C0000E94730887E092E00E94620680910D02FE
:1012D000F8018683F12C8F2D2D960FB6F894DEBF82
:1012E0000FBECDBFDF91CF911F910F91FF90EF9077
:1012F000DF90BF90AF909F908F900895F11039C00C
:1013000040E0692D8E2D0E94D50840E0692D8E2D7C
:101310000E94D508F82E8111DDCF888599850E941D
:10132000F407292F22952F70903450F49F702230AB
:1013300080F0992399F0F8019681903178F4CBCF21
:101340002A5F2F70223078F0C8010E946206FD2CBF
:10135000C2CF992319F0882309F4BDCF805E88306D
:1013600008F4B9CFF1CF803F08F4B5CF815F823068
:10137000F7CF80910D02816080930D02ABCF99125F
:1013800007C0909107029E1103C0FF2009F479C0A5
:10139000C8010E94BD06882309F493C0FF2009F408
:1013A00090C080910D02803288F020910702309128
:1013B00008023A832983BC82AB8290910B029D8301
:1013C0001E828F83CE0101960E94620687E0F8019B
:1013D000A7E0B2E001900D928A95E1F745CF909198
:1013E0000D029031A0F4488559856A857B858C85EE
:1013F0009D850E94CA0687E092E00E94620687E00F
:10140000F40111928A95E9F70E94730863CF88234B
:10141000A1F02091080281812813BACF80910702A0
:101420008E11B6CFF110B4CF9683C8010E94620628
:1014300087E0F40111928A95E9F7FF24F3944BCFEA
:10144000483C510508F041C08823B9F3FF20C9F199
:1014500090910802818198132AC0809107028E1111
:1014600026C080910D0280FD19C08031B8F08683BE
:10147000807F803F39F08681982F907F905F8F70BA
:10148000892B8683C8010E94620687E0F801A7E0E5
:10149000B2E001900D928A95E1F7E8CE87E0F8017D
:1014A000A7E0B2E001900D928A95E1F7C6CFC8019E
:1014B0000E94BD0681118ACF80910D0281608093C8
:1014C0000D02C8010E946206B8CF488559856A8519
:1014D0007B858C859D850E94CA0691CFAEE0B0E0E9
:1014E000E4E7FAE00C949E2B288739874A875B87CC
:1014F0006C877D878E87CE0108960E94F40888232A
:10150000B1F06C85662341F0288539854A855B8575
:101510007D858E850E94D40617E08091CD01909143
:10152000CE0189133EC02E96E3E00C94BA2B87E0DF
:10153000FE013896DE01119601900D928A95E1F731
:101540002091CE014091CD018C85882329F330E094
:10155000C90101968770992750E08417950799F083
:1015600097E0929FD001939FB00D1124A153BE4FDD
:10157000FE01319601900D929A95E1F78093CE018C
:101580000E945108C9CF0E949B061092CE01109272
:10159000CD0187E0E7E0F2E0DF011D928A95E9F7EF
:1015A000BBCF189FC001112481539E4F0E94F408A5
:1015B000882309F4B8CFE091CD011E9FF0011124DA
:1015C000E153FE4F208131814281538164817581D5
:1015D00086810E94D4068091CD0190E001968770AB
:1015E00099278093CD0199CF809136028695869573
:1015F00086950895809136028770089590913602FD
:10160000977081E0911101C080E00895809162029D
:10161000089590916202982B909362020895982FFA
:1016200090958091620289238093620208951092BE
:101630006202089590916102982B9093610208953F
:10164000982F90958091610289238093610208957B
:1016500010926102089508950E942B0B08959091B5
:101660003702292F2823222331F080958923809364
:1016700037020E942C0B089508950E943C0B089598
:1016800090913802292F2823281729F0982B90931E
:1016900038020E943D0B089590913802292F28238B
:1016A000222331F080958923809338020E943D0BDC
:1016B000089580913802882329F01092380280E042
:1016C0000E943D0B0895CF93DF93C09162028091F9
:1016D0006102C82BD0913802DD2331F00E945E21D7
:1016E00081110E94590BCD2B8C2FDF91CF91089542
:1016F000CF93DF93C0910801D09109010E94630B41
:101700008883C0910801D091090148E050E06EE261
:1017100072E0CE010E94F12C892B59F088E0FE0185
:10172000AEE2B2E001900D928A95E1F7CE010E94FF
:10173000E920DF91CF910895CF93DF93C091060107
:10174000D09107010E94630B8983C0910601D0915B
:10175000070140E250E06EE072E0CE010E94F12C01
:10176000892B59F080E2FE01AEE0B2E001900D92CB
:101770008A95E1F7CE010E94F420DF91CF91089580
:1017800080912B01882339F08091EC0287FF03C000
:101790000E949C0B08950E94780B089508950E9462
:1017A000CE0B08959091ED0292FF11C098E0899FB1
:1017B00090011124622B609336020E9415078091DC
:1017C00036028695869586950E94CF0B08950E94D5
:1017D000150708951092360280E00E94CF0B0895FD
:1017E000909136028095892380933602282F2770A6
:1017F00021110DC0891759F09091ED0292FF07C099
:101800008695869586950E9421070E94EA0B089589
:101810009091ED0292FB222720F9281769F080FBB6
:1018200092F99093ED028091EC029091ED020E946A
:10183000510C82E00E94F00B08958091ED0282FB32
:10184000882780F991E089270E94080C089581E09B
:101850000E94080C089580E00E94080C08956FEF24
:101860007FEF80E090E00E94412D089580E090E0BD
:101870000E940D2D853E9E4F19F40E940D1F089564
:1018800080E0089582E090E00E94052D089583E0B5
:1018900090E00E94052D089584E090E00E940D2DB7
:1018A0000895BC0184E090E00E94412D0895AB01B1
:1018B000BC018FE090E00E94352D0895AB01BC0182
:1018C00083E190E00E94352D089560E070E0CB0147
:1018D0000E945E0C089560E070E0CB010E94570CFE
:1018E0000E94650C0895A8E0B0E0E9E7FCE00C94E4
:1018F0009F2B65EE7EEF80E090E00E94412D60E03E
:1019000082E090E00E94232D81E08093CC0161E091
:1019100083E090E00E94232D60E074E184E090E099
:101920000E94412D60E086E090E00E94232D60E05F
:1019300087E090E00E94232D40E050E0BA0188E06B
:1019400090E00E94352D60E083E290E00E94232D1C
:1019500060E08CE090E00E94232D60E08DE090E05C
:101960000E94232D19821A821B821C821D821E82D4
:101970001F82188648E050E067E170E0CE010196D2
:101980000E94132D40E050E0BA018FE190E00E94E8
:10199000352D80E00E94261F0E94651F0E946B0C5F
:1019A0002896E2E00C94BB2B0E94730C0895682FDC
:1019B0008EE090E00E94232D0895A6E0B0E0E3EED3
:1019C000FCE00C949D2B0E9424238C0180916302E7
:1019D000909164028017910779F019821A820E940F
:1019E0002423BC0149815A8180E090E00E94690370
:1019F00010936402009363022696E4E00C94B92BE2
:101A00000E9430236093710270937202809373027C
:101A10009093740260936D0270936E0280936F02D4
:101A2000909370020895089508950E94130D0895EB
:101A300008950E94180D089584EF9FE00E94E91117
:101A40000E94140D0E94150D089581E008950E94D2
:101A5000250D08950E94250D0895089508950E946A
:101A60002D0D0E942E0D08950E94360C811102C08A
:101A70000E94D40C0E94420C809375020E944C0C70
:101A80009093ED028093EC020E94F5170E94470CA0
:101A90000E94E8068091CB010E94000708950E94F1
:101AA0001B230E94751F0E94AD100E94340D0E94DE
:101AB00043030E94190D0895A6E0B0E0E2E6FDE0C0
:101AC0000C94932B0E94270D81110CC00E94DD0CF9
:101AD0000E94231C0E948B170E9450032696EEE062
:101AE0000C94AF2B0E94C31025E6822E22E0922E8A
:101AF000640110E0F601E190F1906F01812F0E94E6
:101B0000FE0F1F5F143009F44DC0E816F90691F37B
:101B10008091750281FD0E9407100E942A0D782E87
:101B2000F12C662463948F2D0E94FE0F8C01F4012A
:101B3000A190B1904F018A159B0569F1A826B9269D
:101B4000E12CCC24C394D12CC5018C219D21892B5F
:101B5000C1F07720B1F0E982FA820E9424239C83AD
:101B60008B836D8221E0C8018C219D21892B09F492
:101B700020E049815A816B817C818D81922F0E9466
:101B80006903E394CC0CDD1CF9E0EF12DDCFF40126
:101B9000329711830083F39484E0F812C4CF0E943B
:101BA000000D96CFE816F90609F0B2CF8FCF1F933C
:101BB000CF93DF930E94010FEC01811522E592077C
:101BC00008F053C0811540E5940708F0DDC0803E61
:101BD0009105F8F48D3C910508F0AEC0883A910566
:101BE00080F4853A910508F099C08130910521F083
:101BF0000497813A910550F4CE01DF91CF911F9166
:101C00000895885A91094B9708F48BC0C0E0D0E042
:101C1000F3CF811550E49507F8F4C11580E2D80799
:101C200008F0CBC0C83ED10538F3CE019A95811596
:101C30009F4160F78D2F0E94A50F182FCE01992785
:101C40000E94010F212F30E0322F2227E901CC27FB
:101C5000DF71C82BD92BD0CF99270E94010FCC2739
:101C6000DF70C82BD92BD06AC7CF803842E59407E4
:101C7000C8F5803652E5950708F067C0C03482E5A4
:101C8000D807B0F08C2F86958695877020E2829FCA
:101C9000C0011124C37021E030E0A90102C0440F4B
:101CA000551FCA95E2F7EA01C82BD92BDC68A4CFEF
:101CB000C03252E5D50708F041C08C2F8695869535
:101CC00020E2829FC0011124C37021E030E0A9010D
:101CD00002C0440F551FCA95E2F7EA01C82BD92B61
:101CE000DD688ACF803C52E5950760F48F71C03A79
:101CF000D24508F03FC090E0982F8827EC01C46FD0
:101D0000D06A7ACF805C9245809708F07FCFDC2F35
:101D1000CC27CC27DF71C06FD06A6ECFA497D06478
:101D20006BCFC85AD0E0CC0FDD1FCE59DE4F0990E3
:101D3000D881C02DD46460CFD0655ECFCF71D0E0A4
:101D4000DC2FCC27C16FD06A57CF869586958770D8
:101D500020E2829FC0011124C37021E030E0A9017C
:101D600002C0440F551FCA95E2F7EA01C82BD92BD0
:101D7000DA6842CF0E94A50FC82FD0E0DC2FCC2715
:101D8000CC27DF71D06238CF8F710E94A50F65E03C
:101D9000D695C7956A95E1F7CF70D0E0DC2FCC27B8
:101DA000282F30E084FF05C054E0220F331F5A95DE
:101DB000E1F7C22BD32BD0691FCF8D2F8F710E94DB
:101DC000A50F182FCE0199270E94010F212F30E077
:101DD000322F222722273F71282B392BE901D2CF1E
:101DE000462F672F743028F4493018F40E94A91840
:101DF000089580E090E008950E94F00E0E94D70DB3
:101E00000895803E9105D1F1C8F48133910509F41C
:101E10007FC048F48932910509F46FC08A32910578
:101E200009F47DC0089589339105E1F08238910568
:101E3000C9F08533910509F45BC00895843E91058E
:101E4000D1F148F4823E910531F1833E910541F193
:101E500081EE90E00895863E9105C1F1873E91059F
:101E6000E1F108952091EC022370211165C02091C9
:101E7000ED0223FF14C089E290E008952091EC0266
:101E800020FD43C03091ED0230FF09C024FF4EC059
:101E900080E090E008952091EC0222FDF7CF0895B4
:101EA0002091EC0222FD45C03091ED0230FD44C08E
:101EB00024FFF5CFEDCF2091ED0221FFF0CF8091EF
:101EC000EC0284FDE5CF87EE90E008952091EC02CE
:101ED00023FFE5CF24FDDCCFF6CF2091EC0223FDDC
:101EE0002EC03091ED0231FFE3CF84EE90E00895F3
:101EF0002091EC0225FFD3CFBECF2091EC0225FD2F
:101F000021C02091ED0223FFCACF89E390E008951C
:101F10002091EC0226FFC3CF8AE290E00895209141
:101F2000EC0226FFBCCF81E390E0089583EE90E0C1
:101F3000089582EE90E0089580EE90E0089586EE98
:101F400090E0089585E390E0AACF9091EC0292FF93
:101F500010C041E0282F2471243009F040E031E026
:101F6000282F2871283009F030E0431711F02CE0B9
:101F7000822793FF10C041E0282F2471243109F0FB
:101F800040E031E0282F2871283109F030E0431774
:101F900011F02CE082273091ED0230FF10C051E0AB
:101FA000282F2171213009F050E041E0282F2871BD
:101FB000283009F040E0541711F029E0822731FF62
:101FC00010C041E0282F2171213109F040E031E0BB
:101FD000282F2871283109F030E0431711F029E04B
:101FE000822794FD877E089580E0089508950E94D9
:101FF000F60F089508950E94FA0F0895E82FF0E073
:10200000EE0FFF1FEA50FD4F8081918108950895E2
:1020100080EA8A95F1F7089500C008950E9408109B
:102020000895F894E82FE295EF70F0E041A18F70E9
:1020300021E030E0B90102C0660F771F8A95E2F710
:10204000CB01962F9095942391A392A1892B82A3E3
:1020500078940895CF93DF9381EF0E94111084EF5D
:102060000E94111081E90E94111082E90E94111052
:10207000C8E9D1E089918F3F11F00E94111081E0F1
:10208000C13AD807B9F7DF91CF910895A0E0B0E049
:10209000ECE4F0E10C94982BEC01B62E062F10E046
:1020A000C8018F559E4F7C01FC0180818F3F09F450
:1020B0004FC0F894E82FE295EF70F0E091A18F7097
:1020C00021E030E001C0220F8A95EAF7892F822BA8
:1020D00081A382A12095282322A378940E940C102A
:1020E000E8E9F1E041E050E0C12CD12C21912F3FF3
:1020F00089F0A22FA295AF70A05EB0E08C9190E025
:102100002F7002C0959587952A95E2F781709A0104
:10211000882311F020E030E0C22AD32A440F551F53
:1021200081E0E13AF80711F7F70180818F3F11F064
:102130000E94111061E0C114D10409F460E08B2DFC
:102140000E940E10000F111FC00FD11FD982C8822C
:10215000CDB7DEB7E9E00C94B42B0E942A1088E0DA
:10216000E6EFF2E0DF01982F1D929A95E9F7EEEE87
:10217000F2E0DF011D928A95E9F784E00E940011E8
:102180000E94F70F0895A8E0B0E0E9ECF0E10C94AC
:102190009C2BFE01319688E0DF011D928A95E9F7BC
:1021A00010E0FE2E0F2F612F8F2D902F0E944610D2
:1021B0001F5F1430C1F748E050E06F2D702F8EEE96
:1021C00092E00E94F12C21E0892B81F420E044E090
:1021D00066EF72E08EEE92E00E941511182F0E94B9
:1021E000FB0F812F2896E5E00C94B82B88E0EF2DAB
:1021F000F02FAEEEB2E001900D928A95E1F7E7CFB5
:10220000CF93DF9399E0899FE0011124CE010E94D2
:10221000C62B80937B0290937C02AE0160E070E05D
:102220000E94FE2CDF91CF910895A0E0B0E0EBE199
:10223000F1E10C94942B182FD92FF62E072FB42EE2
:10224000C22F10927602E0907802EE2009F448C086
:102250000E9424239C018091790290917A02A90125
:10226000481B590B30937A02209379024F3F510556
:1022700009F0D0F44115510509F43FC010927802DD
:102280001092770220917B0250917C0280E030E036
:1022900090E0B9120CC08093770230937802C1119C
:1022A00030C081112EC022C04FEF50E0E7CFE22FA7
:1022B000F52FBF01675F7F4F2191222331F0DF01AE
:1022C0001197421748F01C928E2D6E177F07A1F7C9
:1022D000262F572F9F5FDDCF241B2C933E2DF5CF4C
:1022E00021112AC080917702811126C08091760247
:1022F000CDB7DEB7EDE00C94B02B80917702CC2304
:1023000081F21092770240917B0250917C02909072
:10231000780280907602EF2DF02FA12FBD2FA12CF7
:10232000EE24E394F12C92E3792EBA100CC0809243
:10233000760290927802DACF0E94242390937A0258
:1023400080937902DECF6D917D91808191816827A4
:102350007927EA0120E030E08701022E02C0000F59
:10236000111F0A94E2F76B01C022D122C114D104DB
:1023700051F0D880D11007C0788280279127882417
:1023800083949924939421962F5F3F4F29303105F0
:1023900019F7475F5F4F81939193A394C6CF0E9433
:1023A0005C0D08950E94BD220E9454250E941C0DC0
:1023B0000E9470250E944F0D0E947D250E9482255B
:1023C0000E94CF110E949C250E940C240E942F0D78
:1023D000F5CF9093B5018093B4010895881F8827A5
:1023E000881F0895982F81E0983F08F480E00895B1
:1023F000982F282F207F203D49F180F4203B41F188
:1024000038F4907E903821F1203A11F180E008955F
:1024100081E0203C09F080E0880F0895203EC1F063
:10242000203FA1F7833F91F020F4813F79F0823F74
:10243000ECCF8D3F30F481E0983F10F4963F31F7B8
:1024400008959E5F81E09230D8F3E0CF82E0089556
:1024500083E008950F93DC01022F0F77242F2F774D
:102460006F70462F406BED91FC9163E070E0099531
:102470000F9108950F93DC01022F0F77242F2F77F0
:102480006F70462F4069ED91FC9163E070E0099513
:102490000F9108950F93DC01022F0F77242F2F77D0
:1024A0006F70462F4068ED91FC9163E070E00995F4
:1024B0000F9108950F931F93DC019A01411580E25B
:1024C0005807C4F44115504EC4F0305E8901000F26
:1024D000012F001F110B11952F776F70462F406E43
:1024E000ED91FC91119763E070E0CD0109951F918A
:1024F0000F9108952FEF3FE3E9CF20E030E0E6CFE2
:10250000FC01738362830895FC01758F648F0895C5
:10251000CF93DF93EC011DA21FA21EA2BC01685D38
:102520007F4F40EC88519F4F0E94F7141B821A8204
:102530001D821C821F821E82198618861B861A869F
:102540001D861C861F861E86198A188A1B8A1A8A6F
:102550001D8A1C8A1F8A1E8A198E188E1B8E1A8E3F
:102560001D8E1C8E1F8E1E8E19A218A2DF91CF9178
:102570000895EF92FF920F931F93CF93DF93EA0199
:102580008A01060F111D7C0128EEE20EF11CC01716
:10259000D10729F4CDB7DEB7E6E00C94B72B6991EB
:1025A000C7010E94FE14F3CFFC017183608308957C
:1025B000FC0171A360A30895A3E0B0E0E2EEF2E1B4
:1025C0000C94972B7C016B01142FB22EA02EDC01F2
:1025D00095968C919597843051F55A96ED91FC9192
:1025E000309791F19B0121503109C90163E070E0FE
:1025F0000E945A2BB901681B790B4983BA820B835D
:102600004C2D461B9E012F5F3F4FC7010995D701F7
:102610005E96ED91FC91309731F00A2D2B2D412FD4
:10262000B601C70109952396EAE00C94B32B6230FA
:10263000710509F452C06330710599F0613071057C
:1026400009F479C0C12CD12CD7015C96ED91FC9195
:102650003097E9F20A2D2B2D412FB601C7010995BC
:10266000D6CF842F807F803BF1F058F4803931F150
:10267000803A49F1803841F7D7011696ED91FC91E7
:1026800016C0803E29F1803FF9F6423FE9F6D701B6
:102690001C96ED91FC91202F4B2D62EF3097A1F20B
:1026A000C7010995B4CFD7011296ED91FC913097EF
:1026B00059F22A2D4B2D612F6F70F2CFD70114964E
:1026C000ED91FC91F4CFD7011896ED91FC91EFCFED
:1026D000D7011A96ED91FC91EACF842F807F803D3F
:1026E00091F0803FA9F0803C09F0AECFD7011E9653
:1026F000ED91FC914B2D612F6F70309709F4A4CFB1
:10270000C701099584CFD7015096ED91FC91F2CF86
:10271000433F49F4D7015296ED91FC914B2D612F27
:10272000309771F791CF413F09F08ECFD701549682
:10273000ED91FC91F3CF842F0E94F211882359F080
:10274000D7015696ED91FC91309709F47DCF612F1A
:10275000C70109955CCF163F09F076CFD70158968F
:10276000ED91FC91F1CFFF920F931F93CF93DF93E5
:10277000EC01162F862F0E94F211882389F0FDA00C
:1027800081E08DA300E020E0412F61E070E0CE0108
:102790000E94DC12FDA2CDB7DEB7E5E00C94B82BA9
:1027A000812F0E94EE114DA1882309F443C04430CB
:1027B00029F01AA381E090E09FA38EA3812F0E94AD
:1027C000F811823069F1D0F481111EC0103F51F12F
:1027D000173FB1F42EA13FA1C90163E070E00E9450
:1027E0005A2BFE01E80FF91F12A3B9016F5F7F4F4B
:1027F0007FA36EA30CA12BA14AA10DC0833081F051
:102800001DA21FA21EA2C7CF81E08DA300E020E081
:10281000412F61E070E0CE010E94DC121DA2BBCF0F
:102820008DA3B9CF84E08DA31AA381E090E09FA38C
:102830008EA3B1CF442309F4AECF2EA13FA1C9018D
:1028400063E070E00E945A2BFE01E80FF91F12A30B
:10285000B9016F5F7F4F7FA36EA38130910569F04F
:10286000029709F098CF0CA12BA14AA1CE010E949A
:10287000DC128DA18430C9F68ECF423009F08BCFA7
:1028800000E0F2CFA0E0B0E0E8E4F4E10C94992B92
:10289000EC01E8A1F9A1309709F009956E0188EEE5
:1028A000C80ED11CC6010E942E1500E010E0E82ED3
:1028B000F12C0E151F0528F0CDB7DEB7E8E00C941B
:1028C000B52B60E0C6010E944215682FCE010E9420
:1028D000B31361E0C6010E9452150F5F1F4FE9CF8D
:1028E00008950895A7E0B0E0E8E7F4E10C949D2B8B
:1028F000182F092FCE0101960E944E25811104C088
:102900002796E4E00C94B92B8A810E94F811682F75
:102910008A818D838B818E838C818F83611108C026
:102920006981643069F08BEF860F6450833010F753
:10293000AE014B5F5F4F812F902F0E94B912DACF0B
:1029400063E0F6CFA4E0B0E0E8EAF4E10C949A2B5F
:102950007B01142FD22E4A832B830C83842F0E9459
:10296000F811811122C082E0E816F10489F083E0B9
:10297000E816F10441F081E0E816F10491F4173F04
:1029800029F415E009C017E0073F31F014E004C056
:1029900087EF16E0D812FACF1983CE0101960E9474
:1029A00048252496E7E00C94B62B12951F70F4CFBF
:1029B0000E946F158EEF92E00E94881262EA74E125
:1029C0008EEF92E00E94D41262E774E18EEF92E003
:1029D0000E94D81260E774E18EEF92E00E948412A8
:1029E00061E774E18EEF92E00E9480120895FC018D
:1029F0004283748363831182108208951F93CF935F
:102A0000DF93EC01162F0E946A15482F298130E0D0
:102A1000C90101966A8170E00E946E2B688170E0A6
:102A20008617970741F4842F0E946D1580E0DF918F
:102A3000CF911F910895EB81FC81E20FF31F10836A
:102A4000298130E0C90101966A8170E00E946E2BF5
:102A50008983842F0E946D1581E0E9CFCF93DF93A6
:102A6000EC010E946A1599812881921740F0C92FC4
:102A7000C21B0E946D158C2FDF91CF9108953A8172
:102A8000930FF5CFFC018081860F9927991F6281F2
:102A900070E00E946E2B23813481280F391FF901C9
:102AA000808108951F93CF93DF93EC01162F0E942E
:102AB0006A15282F8881810F9927991F6A8170E0F4
:102AC0000E946E2B8883822F0E946D15DF91CF911B
:102AD0001F9108958FB7F89408958FBF0895EBEE76
:102AE000F3E084E080838FE7818382818078806453
:102AF000828348E450E06FEF70E081E892E00E944A
:102B0000FE2C1092800210927F0210927E02109290
:102B10007D0208959091EB03292F2F70959595953F
:102B20009595959593503CE0239F900D1124890F26
:102B30000895FF920F931F93CF93DF93DB018B34A4
:102B400021E7920730F48330E1E79E07A0F481E0AB
:102B500038C09C012B54314725343105C0F7FC01A6
:102B6000E555F14715962C91EB33F105D8F5EB5966
:102B7000F24D0C94822BD091EC032D2F221F222793
:102B8000221FC091ED03C770CC0FC22BDF770DEF72
:102B9000080F10E00F571D4FF801408115962C913A
:102BA0002223A1F04F3F61F40E948A15F82E2D2FA9
:102BB000482F6C2F8EEF92E00E943A12F801F082BB
:102BC00080E0CDB7DEB7E5E00C94B82B4F3F31F095
:102BD0002D2F6C2F8EEF92E00E944A128FEFF8019A
:102BE0008083EECF222361F38B548F709091EB039F
:102BF000907F892B8093EB03E3CF222309F380910D
:102C0000EB03982F9F709923D9F2915F9F70807F7B
:102C1000F0CF2223A9F28091EB03982F9F70993077
:102C200078F69F5FF3CF222359F28D558295807FEE
:102C30009091EB039F70DDCF222311F29091EB0373
:102C4000892F8595859585958595815F903B0CF4B9
:102C5000B7CF8295807FEECF222309F4B1CF309198
:102C6000EB03832F859585958595859530360CF0FA
:102C7000A7CF21E0280F2295207F25952595259522
:102C80002595922F9295907F3F70932B9093EB0315
:102C900018160CF095CF27FF93CFDBCF222309F432
:102CA0008FCF86569CE0899F902D11249F7780912D
:102CB000EC03807815C0222309F482CF8091EC03C5
:102CC000982F9F77992309F47BCF80789F3721F441
:102CD00085678093EC0374CF9D30D8F39D509F7728
:102CE000892BF7CF222309F46BCF8091EC03982F27
:102CF0009F779F3709F464CF933718F4935F9F77DA
:102D0000D8CF8F67E6CF222309F45ACF835790910B
:102D1000EC0380FB97F99093EC0386958770909174
:102D2000ED03987F892B1AC0222309F449CF3091F3
:102D3000EC03932F991F9927991F2091ED03822F60
:102D40008770880F892B815F982F9F7080FB37F9E0
:102D50003093EC03892F8695287F822B8093ED0397
:102D60002FCF222309F42CCF3091EC03932F991FFE
:102D70009927991F2091ED03822F8770880F892B47
:102D80008F5FE2CF222309F41BCF8091EC03881FD1
:102D90008827881F6091ED036770660F682B20E01D
:102DA0004BE78EEF92E00E942A120ACF222369F0AD
:102DB0002FE78091EC03881F8827881F6091ED031F
:102DC0006770660F682B40E4ECCF20E0F2CF22233F
:102DD00069F02FE78091EC03881F8827881F609196
:102DE000ED036770660F682B41E4DBCF20E0F2CF84
:102DF000222369F02FE78091EC03881F8827881F22
:102E00006091ED036770660F682B42E4CACF20E043
:102E1000F2CF222369F02FE78091EC03881F8827E7
:102E2000881F6091ED036770660F682B43E4B9CF8C
:102E300020E0F2CF222369F02FE78091EC03881F76
:102E40008827881F6091ED036770660F682B44E444
:102E5000A8CF20E0F2CF81E0211101C08FEF809355
:102E60007F02AECE222309F4ABCE2091ED03922F48
:102E70009695969596959F7081E0890F8F70880F33
:102E8000880F880F2778822B8093ED03282F2877CF
:102E9000211196CE990F990F990F8778982B9093BF
:102EA000ED038ECE222309F48BCE9091ED03892F72
:102EB0008877882309F484CE892F86958695869510
:102EC000815F8F70880F880F880F97782BCF809144
:102ED000EC03881F8827881F6091ED036770660FD9
:102EE000682B40E050EE211111C040E050E00EC0D0
:102EF0008091EC03881F8827881F6091ED0367701D
:102F0000660F682B4FEF5FE1222379F38EEF92E09B
:102F10000E945A1255CE8EEF92E00E944214809188
:102F20007D0290917E020E944D232091ED03269513
:102F3000269526952F7030E082179307A8F10E94FE
:102F4000242390937E0280937D0280917F028823C8
:102F500059F18091EC03881F8827881F6091ED0349
:102F60006770660F682B2091800241E08EEF92E03F
:102F70000E942A1280917F029091800287FF0FC0E9
:102F8000292F30E0682F772761950CF4709526176C
:102F900037072CF41092800210927F020895890F57
:102FA00087FD03C08093800208958FE7FBCF0E94C6
:102FB0002F0C089580E00E94FE0F817008950E94FA
:102FC000C3102FEF81EE94E0215080409040E1F754
:102FD00000C000000E94C3100E94DA17882321F06D
:102FE0000E94D7170E94802308950E94DF1708953A
:102FF00084E0089550E0440F551F92E1699F400D11
:10300000511D112498E4899F400D511D1124CA01BE
:10301000889608950F931F93CF93DF93982F962B45
:103020009430B8F44930A8F40E94FA178C010E9439
:10303000052DC82FD0E0DC2FCC27C80101960E94B7
:10304000052D9E01282BC901DF91CF911F910F9172
:10305000089580E090E0F8CF0F931F93CF93DF9314
:10306000122F032F982F962B943068F4493058F480
:103070000E94FA17EC01602F0E94232D612FCE01D0
:1030800001960E94232DDF91CF911F910F910895FA
:103090001F93CF93DF93D0E0C0E011C0412F6C2F7E
:1030A0008D2F0E941E029C01412F6C2F8D2F0E949C
:1030B0002C181F5F193091F7CF5FC43011F010E06A
:1030C000EDCFDF5FD43041F7DF91CF911F910895AD
:1030D000EF92FF920F931F93CF93DF938C01EA013E
:1030E0007A01E60EF71ECE15DF0529F4CDB7DEB75F
:1030F000E6E00C94B72B003281E0180740F4C801D9
:1031000088960E94052D89930F5F1F4FECCF80E0BA
:10311000FACFEF92FF920F931F93CF93DF938C011F
:10312000EA017A01E60EF71ECE15DF0529F4CDB7C8
:10313000DEB7E6E00C94B72B003281E0180728F4E4
:103140006881C80188960E94232D21960F5F1F4F2A
:10315000EBCF982F962B943028F4493018F40E9426
:103160000A18089580E090E0089580E1089588EBC2
:1031700092E00895EF92FF920F931F93CF93DF9306
:103180008C01EA017A01E60EF71ECE15DF0529F45F
:10319000CDB7DEB7E6E00C94B72B083B82E018070A
:1031A00048F4C801885B9E4F0E94052D89930F5FEC
:1031B0001F4FEBCF80E0FACFEF92FF920F931F9358
:1031C000CF93DF938C01EA017A01E60EF71ECE154C
:1031D000DF0529F4CDB7DEB7E6E00C94B72B083B4A
:1031E00082E0180730F46881C801885B9E4F0E9416
:1031F000232D21960F5F1F4FEACFCF93DF93C8E4B3
:10320000D1E060E0CE010E94232D2196C11584E01B
:10321000D807B9F7DF91CF910895A8E0B0E0E3E1D6
:10322000F9E10C94992BF82E2FE0281708F46FC0C1
:103230008FEF93E00E94052D811169C008E411E031
:10324000F11038C01A821982FE01339686E0DF0140
:103250001D928A95E9F76801BFEFCB1ADB0AC80116
:103260000E94052D89831A82882309F450C0813079
:10327000D1F4780122E0E20EF11CC6010E94052D76
:103280008A83882309F443C09FEF980F9330F8F4A2
:10329000680183E0C80ED11CC7010E94052D8B83F5
:1032A0008823A9F11C8260E0CE0101960E94B71D1F
:1032B0008601D1CF011584E0180749F1C8010E94A9
:1032C000052D0F5F1F4F8111F5CFFA94B9CF8430D0
:1032D000B9F402E010E0C701AFEFEA1AFA0A0E945F
:1032E000052DE1E0F0E0EC0FFD1FE00FF11F808302
:1032F000882369F08C3731F4FE01E00FF11F128250
:103300006701D1CF0F5F1F4F0730110521F72896B6
:10331000E8E00C94B52BCF93DF93EB0186319C470B
:1033200019F50E94060B9D819923A1F08A7A91E0FC
:10333000811101C090E09093C902882349F085E390
:103340000E940D220E94C00B80E0DF91CF91089572
:1033500089E2F6CF8091C902882321F085E30E949B
:103360002422F0CF89E2FBCF81E0EFCFCF93DF9330
:10337000EC01FB018581882309F4D2C09E013057FE
:103380002332310508F0B2C00E944C0C9093ED023C
:103390008093EC02FE01E150F047E232F10520F4A7
:1033A000E056F24D0C94822B8091EC028160809368
:1033B000EC0293C08091ED0288608093ED028DC095
:1033C0008091EC028260F3CF8091EC028460EFCFB9
:1033D0008091EC028860EBCF8091ED028160EDCFAF
:1033E0008091ED028260E9CF8091EC028061DFCFB5
:1033F0008091EC028062DBCF8091EC028064D7CFB9
:103400000E949B068091EC028068D1CF8091EC02F3
:103410008C60CDCF8091ED028360CFCF8091EC02A4
:103420008E7FC5CF8091ED02877FC7CF8091EC0260
:103430008D7FBDCF8091EC028B7FB9CF8091EC0264
:10344000877FB5CF8091ED028E7FB7CF8091ED025F
:103450008D7FB3CF8091EC028F7EA9CF8091EC025B
:103460008F7DA5CF8091EC028F7BA1CF0E949B0620
:103470008091EC028F779BCF8091EC02837F97CF76
:103480008091ED028C7F99CF8091EC0282FB99278D
:1034900090F921E0922790FB82F990FB83F987CF86
:1034A0008091ED02982F909591708E7F892B90FBE3
:1034B00081F983CF9091EC02892F8F7B96FF8064F6
:1034C00076CF0E949B069091EC02892F97FB87F99B
:1034D00080586DCF81E00E94D70C8091EC029091D2
:1034E000ED020E94510C0E949B0680E0DF91CF917B
:1034F000089580E0F0CF9091EC02892F8F7E94FFA9
:10350000806155CF9091EC02892F8E7F90FF816072
:103510004ECF9091ED02892F877F93FF88604DCF2A
:1035200081E0E4CF282F35EB2303C001112497FF5E
:1035300004C080589109892F089580589F4FFBCF70
:103540008091D00280FF0DC060910F0170E0660F86
:10355000771F60387105C0F561157105B9F1862FC7
:10356000089581FF07C060910F0184E0689FB0015A
:103570001124EFCF82FF04C060910F0188E0F6CFE5
:103580008091CF028823E9F090910E0160910F01A4
:1035900070E0891730F093E0660F771F9A95E1F796
:1035A000D8CF869F9001879F300D112483E0220F92
:1035B000331F8A95E1F7692F70E0C9010E946E2BD5
:1035C000C8CF68E070E0CBCF8FE7089581E0089521
:1035D0008091D00280FF0CC060910B0170E0759566
:1035E0006795759567956115710561F1862F089549
:1035F00081FF06C060910B0170E075956795F3CF70
:1036000060910B0170E082FD15C02091CE02222353
:10361000B1F090910A0160910B0170E0291750F40C
:10362000269FA001279F500D1124692F70E0CA0129
:103630000E946E2B60387105B0F28FE7089561E04B
:1036400070E0D4CF81E00895E3E3E80FE331E0F5E3
:10365000F0E0EE53F24D0C94822B0E94A01A81955B
:103660008093D40208950E94A01AFACF0E94A01A53
:1036700081958093D30208950E94A01AFACF0E94E8
:10368000E81A8093D50208950E94E81A8195F9CF2F
:103690000E94E81A81958093D60208950E94E81A44
:1036A000FACF815D990B21E030E001C0220F8A95AD
:1036B000EAF78091D202822B8093D2020895809102
:1036C000D00281608093D00208958091D002826000
:1036D000F9CF8091D0028460F5CF4091D3028D3C28
:1036E00059F48091D40287FF0DC01092D402442374
:1036F00059F41092CF0208C08E3C81F48091D4021C
:1037000018169CF3442381F08091D5029091D60243
:10371000892B811159C01092CE0208958F3C41F43B
:1037200047FFF0CF1092D3028091D4028823E0CFDC
:10373000803D19F41416B4F3E5CF9091D502893D7C
:1037400029F41916FCF61092D502DCCF8A3D19F443
:1037500097FFD8CFF8CF9091D6028B3D29F497FFF1
:10376000D1CF1092D602CECF8C3D19F41916CCF3DE
:10377000C9CF9FE2980F983090F4815D990B21E0BA
:1037800030E0B90102C0660F771F8A95E2F7CB01DE
:1037900080959091D20289238093D202B3CF8D3D40
:1037A00031F48091D0028E7F8093D002ABCF8E3DDA
:1037B00021F48091D0028D7FF7CF8F3D09F0A2CF09
:1037C0008091D0028B7FF0CF08950E942423209116
:1037D000D3023091D402232B222321F08093CC02F8
:1037E0009093CD022091D5023091D602232B222333
:1037F00021F08093CA029093CB0281ED92E00E9467
:103800000321089586E0E1EDF2E0DF011D928A9543
:10381000E9F71092CF021092CE021092D0020895D2
:10382000FC01828181110DC0838181110AC08481D4
:10383000811107C081E09581911101C080E0817004
:10384000089581E0FCCFA6E0B0E0E9E2FCE10C9451
:103850009C2B86E0E1EDF2E09E012F5F3F4FD90106
:1038600001900D928A95E1F71092D3021092D40242
:103870001092D5021092D6028B819C81892B8901EE
:10388000882391F08091CC029091CD020E944D232B
:103890009C018091CF028823C9F14091100150E032
:1038A0004217530708F43FC08D819E81892B8823DE
:1038B00099F08091CA029091CB020E944D239C0105
:1038C0008091CE02882309F467C040910C0150E03A
:1038D0004217530708F46EC0B80181ED92E00E94D0
:1038E0005522811105C081ED92E00E94101C8111CA
:1038F0000E94E51B86E0F801A1EDB2E001900D9277
:103900008A95E1F72696E5E00C94B82B40911101D9
:103910009AE0499FA00111244217530728F68F5FB0
:103920008093CF0202C08F3FD1F7FB80FF2059F078
:103930000E94A01A91E01F140CF09FEF899F802D28
:1039400011248093D302FC80FF2059F00E94A01A1A
:1039500091E01F140CF09FEF899F802D112480931C
:10396000D4028091D302882309F49ECFF090D40230
:10397000FF2009F499CF0E94921A811101C081E0C1
:103980008093D3028F2D0E94921A882319F080937E
:10399000D4028ACF81E0FBCF40910D019AE0499F8C
:1039A000A00111244217530708F096CF8F5F809330
:1039B000CE0202C08F3FD1F7FD80FF2059F00E9458
:1039C000E81A91E01F140CF09FEF899F802D1124BD
:1039D0008093D502FE80FF2059F00E94E81A91E002
:1039E0001F140CF09FEF899F802D11248093D60225
:1039F0008091D502882309F46FCFF090D602FF2082
:103A000009F46ACF0E94921A811101C081E080936B
:103A1000D5028F2D0E94921A882319F08093D60226
:103A20005BCF81E0FBCFA0E0B0E0E9E1FDE10C94E9
:103A3000982BE82FF0E0EC50FF4FB490282F2695FC
:103A40002695269530E0F901EC56FE4F04918770DB
:103A500010E0082E02C0159507950A94E2F7017050
:103A60001127F901EC57FE4FE490F12C082E02C00B
:103A7000F594E7940A94E2F791E0E922FF24F90132
:103A8000EC58FE4FC491D0E002C0D595C7958A95F9
:103A9000E2F7C170DD27C62ED12C0115110549F5BD
:103AA000E114F10431F086EE0E94AC03C6010097E8
:103AB00071F5B6018B2D0E942704C601009779F598
:103AC000E114F104A1F50115110531F081EE0E9418
:103AD000F403C6010097C9F5CD2B31F08CE20E94AA
:103AE0003F04C114D104C9F5CDB7DEB7E9E00C94A9
:103AF000B42B81EE0E94AC03C601009789F2EFE976
:103B0000FFE03197F1F700C000000197F6CFEFE931
:103B1000FFE03197F1F700C000000197C8CFEFE94F
:103B2000FFE03197F1F700C000000197C7CF86EEA4
:103B30000E94F403C601009731F2EFE9FFE03197EC
:103B4000F1F700C000000197F6CFEFE9FFE03197F1
:103B5000F1F700C000000197BDCF8FE99FE001970A
:103B6000F1F700C0000091E0C91AD108BACFEF9276
:103B7000FF921F93CF93DF93EC01162F8881882348
:103B800009F45AC0813009F053C08981813071F441
:103B90007E0182E0E80EF11C8A810E943F04E70169
:103BA000812F90E00097E1F52196E8CF823041F433
:103BB0007E01E2E0EE0EF11C8A810E94AC03EFCFA1
:103BC000833041F47E01F2E0EF0EF11C8A810E9405
:103BD000F403E5CF843011F02196E2CF2A812296BA
:103BE00080E090E06AE0AE014F5F5F4F2053330BFF
:103BF0002A30310550F0009799F2EFE9FFE0319754
:103C0000F1F700C000000197F6CF689FF001699FAF
:103C1000F00D1124C9018E0F9F1F2981EA01E3CF06
:103C2000EFE9FFE03197F1F700C000000197BACF4C
:103C3000612F0E94131DB8CFDF91CF911F91FF908C
:103C4000EF9008950F931F93CF93DF93C42FD22F3C
:103C5000FC0185818823C9F04093D9020E94242366
:103C60009093D8028093D70280E28C0F883040F482
:103C7000C77081E001C0880FCA95EAF70E94480426
:103C8000DF91CF911F910F9108951091D9021413D4
:103C90003CC08091D7029091D8020E944D23883C6D
:103CA000910598F5C0E2CD0F1D1741F180E2810F1B
:103CB000883040F4177081E001C0880F1A95EAF748
:103CC0000E944F04C83020F0802F0E943F04D8CFBC
:103CD00091E08D2F877001C0990F8A95EAF7892F9F
:103CE0000E944804802F0E943F04D77081E001C0E9
:103CF000880FDA95EAF70E944F04C2CF802F0E9406
:103D00003F04C83008F0BCCFF0CF80E28C0F883081
:103D100008F0B6CFC77081E001C0880FCA95EAF7F6
:103D2000EACF0F93FC01CB01E851FC47E730F105E6
:103D300090F5EB52F24D0C94822B06E221EE41EE0F
:103D40006AE17CE70E94221E80E00F91089507E25D
:103D500025EE45EE6BE17CE7F5CF06E221EE40EE85
:103D600068E17CE7EFCF07E225EE44EE69E17CE70E
:103D7000E9CF06E221EE42EE6CE17CE7E3CF07E219
:103D800025EE46EE6DE17CE7DDCF08E221E045EE71
:103D90006EE17CE7D7CFFB01858181111092D902BA
:103DA00081E0D3CFCF93DF939C01FB0127378CE7D2
:103DB000380739F028373C47F1F081E0DF91CF91A7
:103DC00008958581882391F00E94041F0E941507A1
:103DD0000E940A1FD82F0E94071FC82F0E94041F8D
:103DE0004D2F6C2F0E94470880E0E8CF0E94041FEF
:103DF0000E942107EDCF8581882319F00E94071FBB
:103E0000E5CF0E94071FF4CF80911401089580919F
:103E10001301089580911201089584E290E00E94B8
:103E2000052D853289F485E290E00E94052D8230CF
:103E300059F486E290E00E94052D91E0803209F06D
:103E400090E0892F8170089580E0FCCF882381F075
:103E500065E284E290E00E94232D62E085E290E03A
:103E60000E94232D60E286E290E00E94232D0895B7
:103E70006FEF84E290E00E94232D6FEF85E290E0E7
:103E80000E94232D6FEFEFCF0895A4E0B0E0EBE4A4
:103E9000FFE10C949F2B87E290E00E94052D282FD4
:103EA00030E040E050E0CA01B9012496E2E00C9411
:103EB000BB2B0895CF93C62F0E94591F6C2F87E20A
:103EC00090E00E94232DCF91089580E00E94261F4C
:103ED00060E070E0CB010E945A1F0E9448180E94C7
:103EE000FD1881E00E94261F08950E94441F0E9431
:103EF000451F0E94591F0E940D1F811102C00E9480
:103F0000651F089508959C01FB018581882351F068
:103F1000A90157574038510530F4822F0E940D19DE
:103F200080E0089581E008952FEFFC01208308953B
:103F30000E94941F089580E00895CF92DF92FF922F
:103F40000F931F93CF93DF93CDB7DEB72E970FB6A6
:103F5000F894DEBF0FBECDBF8D839E83F62E8D817C
:103F60009E810E949B1F811115C0AD81BE81EC9185
:103F7000E150E33140F5F0E0E452F24D0C94822B35
:103F8000ED81FE8111828CE082836F2D8D819E8177
:103F90000E9402242E960FB6F894DEBF0FBECDBF4E
:103FA000DF91CF911F910F91FF90DF90CF900895F7
:103FB000AD81BE8111968C91833099F148F48130A6
:103FC00081F08230E9F08FEFAD81BE818C93DDCF3F
:103FD0008430C9F7ED81FE8112821382148215822A
:103FE000D4CF0E9430230E94882B6F8378878987E3
:103FF0009A87ED81FE816283738384839583C5CF25
:104000000E94451F0E94882B6B877C878D879E8727
:10401000AD81BE8112966D937D938D939C93159780
:10402000B4CFED81FE81028110E06F01B2E0CB0ED2
:10403000D11C043011050CF0A8CF802F0E94FE0F78
:10404000D60111969C93119712968C930F5F1F4F78
:10405000EDCFED81FE818181823049F0853009F01C
:10406000B2CFED81FE8182810E94821F8ECFAD8111
:10407000BE8112968D919D910D90BC91A02D89834A
:104080009A83AB83BC83BC01CD010E94882B0E9424
:104090005A1F7BCFAD81BE8113964C911397129618
:1040A0006C91129711968C910E940A189827892773
:1040B0009827ED81FE819583848367CFAD81BE8192
:1040C00014962D913C91159732272327322713966A
:1040D0004C91139712966C91129711968C910E94A5
:1040E0002C1853CF0E94481850CF6F2D8D819E8180
:1040F0000E94981F4ACF0E94B518ED81FE818183EE
:1041000044CF0E94B718982789279827AD81BE8190
:1041100012969C938E93119738CFED81FE81638127
:1041200070E081819281AF014C5F5F4F98278927B2
:1041300098270E94BA1829CFAD81BE8113966C9141
:10414000139770E011968D919C911297AD014C5F81
:104150005F4F9827892798270E94DC1816CF0E9466
:10416000FD1813CF0E94F817C8CFAD81BE811396FA
:104170006C91139770E011968D919C911297AD01FF
:104180004C5F5F4F9827892798270E946818FDCEBB
:10419000ED81FE81638170E081819281AF014C5F8E
:1041A0005F4F9827892798270E948918EECE909311
:1041B000DF028093DE020895E091DE02F091DF02DB
:1041C000309729F00190F081E02D0995089580E065
:1041D0000895E091DE02F091DF02309721F0028035
:1041E000F381E02D09950895DC01E091DE02F09164
:1041F000DF02309739F086E08C930480F581E02D62
:10420000CD0109950895DC01E091DE02F091DF0215
:10421000309739F082E08C930680F781E02DCD0154
:1042200009950895A3E0B0E0E8E1F1E20C949F2B3A
:104230009C018091DC029091DD0282179307A1F02E
:104240003093DD022093DC02E091DE02F091DF0288
:10425000309751F083E089833B832A830084F18582
:10426000E02DCE01019609952396E2E00C94BB2B3C
:10427000A3E0B0E0EEE3F1E20C949F2B9C0180916F
:10428000DA029091DB0282179307A1F03093DB02F0
:104290002093DA02E091DE02F091DF02309751F0D4
:1042A00084E089833B832A830084F185E02DCE015D
:1042B000019609952396E2E00C94BB2B209108010E
:1042C000309109012E5F3F4F80912B018823A9F087
:1042D0008091EC0287FF11C0209106013091070107
:1042E0002E5F3F4F9DE180E0F90140812F5F3F4FFE
:1042F00041118F5F9150C0F7089595E0F4CF882366
:1043000021F190912B01992311F19091EC0297FFEB
:104310001EC0982F969596959695803FB0F4E091A3
:104320000601F0910701E90FF11D228130E087704D
:1043300041E050E0BA0102C0660F771F8A95E2F7AC
:104340002623372381E0232B91F480E008952091E8
:10435000080130910901F9013296285F3F4F919190
:10436000981721F0E217F307D1F7EFCF81E0089516
:104370009C01FC0132968FEF90E04191461751F07D
:104380008F3F19F4411101C0892F9F5F9630A9F723
:104390008F3F09F40895280F311D87FD3A95F901E3
:1043A000628308959C01FC013296285F3F4F819102
:1043B000861303C0DF0111971C92E217F307B9F7C8
:1043C0000895FC01862F869586958695603F60F45A
:1043D000E80FF11D677021E030E001C0220F6A95FF
:1043E000EAF78281822B82830895FC01862F8695CD
:1043F00086958695603F80F4E80FF11D677081E037
:1044000090E09C0102C0220F331F6A95E2F7B901C8
:1044100060958281682362830895682F80912B01C3
:10442000882359F08091EC0287FF07C08091060134
:10443000909107010E94E1210895809108019091D7
:1044400009010E94B8210895682F80912B018823CB
:1044500059F08091EC0287FF07C08091060190918E
:1044600007010E94F52108958091080190910901AA
:104470000E94D221089580912B01882379F08091A8
:10448000EC0287FF0BC0E0910601F0910701329624
:104490008EE1DF011D928A95E9F70895E091080108
:1044A000F0910901329686E0F4CFDC01FB01119610
:1044B0009C9111978181981322C012968C9112972A
:1044C000882319F0928189131AC013968C9113973F
:1044D000882319F09381891312C015968C91159732
:1044E000882319F0958189130AC014969C91992309
:1044F00021F081E02481291303C080E001C081E024
:104500008170089508950E94822208958F5F80939C
:10451000E0020E948322089583E08093E0020E94DB
:10452000832208950E948622089581E08093E0020C
:104530000E94832208950E94952208950895089567
:104540000E949F220895089508950E949E22089532
:10455000CF930E94A3220E94C3100E94A422C0E015
:104560008C2F0E94FE0F892B31F4CF5FC430C1F72E
:1045700080E0CF91089581E0FCCF85B7806885BF4A
:1045800085B7806885BF08951F921FB61F921124BA
:104590008F939F93AF93BF938091E102811113C0DA
:1045A0008091EF039091F003A091F103B091F20399
:1045B0004196A11DB11D8093EF039093F003A0934A
:1045C000F103B093F203BF91AF919F918F911F9030
:1045D0001FBE1F9018958091F703843031F10E941F
:1045E00027031092E10288E190E020E40FB6F894EE
:1045F000A895809360000FBE2093600083B7817FF1
:10460000846083BF83B7816083BF7894889583B7C4
:104610008E7F83BF0FB6F894A89580916000886163
:1046200080936000109260000FBE08950E949B0668
:104630000E942C03089582E084BD93E095BD9AEF1B
:1046400097BD80936E0008952FB7F8948091EF0383
:104650009091F003A091F103B091F2032FBF089560
:10466000A4E0B0E0E6E3F3E20C949F2B8FB7F8945C
:104670002091EF033091F0034091F1035091F20348
:1046800029833A834B835C838FBF69817A818B81D5
:104690009C812496E2E00C94BB2B9C014FB7F894CC
:1046A0008091EF039091F003A091F103B091F20398
:1046B0004FBF821B930B089578941F921FB61F92D1
:1046C00011248F939F93AF93BF938091EF039091A9
:1046D000F003A091F103B091F2030196A11DB11D69
:1046E0008093EF039093F003A093F103B093F20350
:1046F000BF91AF919F918F911F901FBE1F901895F2
:1047000081E08093E00080E28093D8001092C9009D
:104710008FE19EE40197F1F700C0000087E090EB85
:10472000DC018093040490930504A0930604B093E5
:10473000070488E19CE00FB6F894A8958093600088
:104740000FBE90936000FFCF88E19CE00FB6F89415
:10475000A895809360000FBE90936000FFCF80917A
:10476000EA020895282FCB01BA013091F7033430C3
:10477000E1F42F702093E9002FEF3091E80035FD30
:1047800007C035ED3A95F1F7000021502111F5CF22
:104790002091E80025FF09C040E050E00E94192662
:1047A0008091E8008E778093E8000895BC0143E093
:1047B00050E084E00E94B2230895BC0146E050E03E
:1047C00084E00E94B2230895BC0140E250E084E0FE
:1047D0000E94B2230895CF93DF93D82FC92F48E0CA
:1047E00050E0682F792F81E00E94B22388E0ED2FFE
:1047F000FC2FA2EEB2E001900D928A95E1F7DF91D5
:10480000CF910895792F603231F440E250E0682F63
:1048100082E00E94B2230895A0E2B0E0E2E1F4E277
:104820000C949F2B8091F703843081F483E0809374
:10483000E9008091E80082FF09C08091E80085FDD1
:1048400009C08091E8008B778093E800A096E2E0B1
:104850000C94BB2B40E050E060E270E0CE0101968A
:104860000E9468268091E8008B778093E80060E2E0
:10487000CE0101960E949D1FE9CF8091F603811120
:1048800009C00E94F0270E944D288091E2008460B8
:104890008093E20008951092F60308950E949522F5
:1048A00008956091F30381E0611101C080E00E94EE
:1048B0008C2208959091F70381E0943009F080E014
:1048C0006091F3030E949222089542E061EC81E03E
:1048D0000E946C2742E261EC84E00E946C2742E275
:1048E00061EC82E00E946C2742E260EC83E00E946F
:1048F0006C2742E361E885E00E946C2742E360E8B0
:1049000086E00E946C279091F70381E0943009F0D3
:1049100080E06091F3030E94862208958091F9035C
:10492000893089F148F4823009F4A1C0833009F458
:104930005BC0813041F008958A3009F488C08B3023
:1049400009F46DC008958091F803813A09F04BC0D5
:104950008091E800877F8093E8008091FC0390912C
:10496000FD03892B61F060E080E090E070E00E9440
:10497000B7268091E8008B778093E800089568E07F
:1049800082EE92E0F3CF8091F803813261F580915D
:10499000FC039091FD038D7F892B29F58091E80020
:1049A000877F8093E8008091E80082FF18C0909193
:1049B000F3008091F200029731F48091F100813090
:1049C00011F0863021F48091F1008093EA02809109
:1049D000E8008B778093E8000E94A02704C08091B4
:1049E000F7038111E0CF08958091F803813AD9F758
:1049F0008091FC039091FD03892BA9F78091E80039
:104A0000877F8093E8008091E80080FFFCCF809151
:104A10002B018093F1008091E8008E77DBCF8091AD
:104A2000F803813201F78091FC039091FD03892BFB
:104A3000D1F68091E800877F8093E8000E94A0274C
:104A40008091FA0380932B010E949B060895809128
:104A5000F803813241F68091E800877F8093E80077
:104A60000E94A0278091FB038093EB020895809120
:104A7000F803813A09F0B7CF8091E800877F8093EF
:104A8000E8008091E80080FFFCCF8091EB02C1CF6D
:104A9000BC0185E191E00E94EA2A0895BC0185E10C
:104AA00091E00E94342B08950E94D81484B7877F28
:104AB00084BF0FB6F894A8958091600088618093B8
:104AC0006000109260000FBE80E890E00FB6F8948E
:104AD00080936100909361000FBE0E949B22089515
:104AE0000E94F0270E944D28E2EEF0E08081846071
:104AF000808378940E94D02A089581E291E00E94F8
:104B0000D72008958091F703853031F48091F70321
:104B1000853019F00E94162308950E94EB220E940E
:104B2000A822882399F38091F503882379F30E94C2
:104B300003260E949B06EACF85E191E00E94232B89
:104B400008959A014091FE035091FF030E94A92508
:104B50000895AC01CB01D901252F3327233031052E
:104B600021F168F42130310509F443C022303105C8
:104B700009F444C080E090E020E030E024C021321D
:104B8000310551F122323105A9F78330910590F7B3
:104B9000FC01EE0FFF1FE855FE4F208131818B5540
:104BA0009E4FFC01808190E00EC0CA0199274130E0
:104BB00069F08230910569F0E6EDF1E0892BD1F6DC
:104BC000849190E09F012D933C930895EEEBF1E0EA
:104BD000F7CFE4EAF1E0F4CF8330910558F6FC0119
:104BE000EE0FFF1FE255FE4F2081318189E090E0FA
:104BF000EACF82E190E029E932E0E5CF8FEB90E067
:104C00002AED31E0E0CF80E189BD82E189BD09B4C0
:104C100000FEFDCF8091D8008F7D8093D8008091D9
:104C2000E00082608093E0008091E00081FDFCCF95
:104C30000895AF92BF92CF92DF92FF920F931F938E
:104C4000CF93DF936C01EB018A010E94BF27F82EFE
:104C5000811123C00115110539F0F801808191817E
:104C6000C81BD90BC80ED91EA12CB12C2097A9F0B6
:104C70008091E80085FD22C08091E8008E778093C6
:104C8000E80001151105A1F0F801808191818A0DDC
:104C90009B1D9183808385E0F82E8F2DDF91CF912E
:104CA0001F910F91FF90DF90CF90BF90AF9008952C
:104CB0000E94BF278823E1F2F82EEFCFF601819101
:104CC0006F018093F1002197FFEFAF1ABF0ACECF9B
:104CD000AF92BF92CF92DF92FF920F931F93CF9329
:104CE000DF936C01EB018A010E94BF27F82E81112E
:104CF00023C00115110539F0F80180819181C81B8D
:104D0000D90BC80ED91EA12CB12C2097A9F08091E7
:104D1000E80085FD22C08091E8008B778093E80051
:104D200001151105A1F0F801808191818A0D9B1D6B
:104D30009183808385E0F82E8F2DDF91CF911F9195
:104D40000F91FF90DF90CF90BF90AF9008950E9499
:104D5000BF278823E1F2F82EEFCF8091F100F60112
:104D600081936F012197FFEFAF1ABF0ACECFFC01ED
:104D70009B018091FE039091FF038617970718F01F
:104D8000672B61F0C90140E0009771F441110CC03C
:104D90008091E80082FF35C080E008958091E800AE
:104DA0008E778093E800EECF2091F7032223A9F1BC
:104DB0002530A9F12091E80023FD2DC02091E800C5
:104DC00022FDE6CF2091E80020FFDECF3091F300F6
:104DD0002091F200009719F02830310558F041E099
:104DE0002830310509F040E02091E8002E7720932B
:104DF000E800CACF41914093F10001972F5F3F4FE8
:104E0000E9CF8091F703882341F0853041F080910C
:104E1000E80083FFBDCF81E0089582E0089583E03C
:104E20000895FC019B018091FE039091FF0386177A
:104E3000970718F0672B61F0C90140E0009771F403
:104E400041110CC08091E80082FF36C080E00895D7
:104E50008091E8008E778093E800EECF2091F703F1
:104E60002223B1F12530B1F12091E80023FD2EC0BD
:104E70002091E80022FDE6CF2091E80020FFDECF60
:104E80003091F3002091F200009719F0283031059D
:104E900058F041E02830310509F040E02091E80069
:104EA0002E772093E800CACF44914093F1003196C9
:104EB00001972F5F3F4FE8CF8091F703882341F0A0
:104EC000853041F08091E80083FFBCCF81E00895F8
:104ED00082E0089583E00895982F973028F08F702E
:104EE0008093E90081E008959093E900242F762FC4
:104EF00050E0981731F07091EC002091ED00509146
:104F0000F00021FD02C09F5FE8CF3091EB003E7FB3
:104F10003093EB003091ED003D7F3093ED00309108
:104F2000EB0031603093EB007093EC002093ED00C8
:104F30005093F0002091EE0027FDE5CF80E008952A
:104F40008091F80387FF13C08091E80082FF06C0BC
:104F50008091E8008B778093E80004C08091F7038C
:104F60008111F2CF08958091F7038823D9F38091BE
:104F7000E80080FFF8CF8091E8008E77ECCF209199
:104F8000E4003091E50095E6A9018091EC00817084
:104F9000882331F08091E80080FF06C080E008950A
:104FA0002091E80022FD1BC08091F703882391F037
:104FB000853091F08091EB0085FD10C02091E400D8
:104FC0003091E5004217530701F391509111DCCF66
:104FD00084E0089582E0089583E0089581E00895D3
:104FE0000E945F280E946728E0EEF0E080818160E7
:104FF0008083E8EDF0E080818F77808319BCA7ED96
:10500000B0E08C918E7F8C9380818F7E8083109214
:10501000F60308950F931F93CF93DF930E945F28A9
:105020000E946728C8EDD0E088818F7788838881C7
:105030008068888388818F7D888319BC1092F703EC
:105040001092F3031092F5031092F40300EE10E0B7
:10505000F80180818B7F808388818160888342E032
:1050600060E080E00E946C27E1EEF0E080818E7FBE
:105070008083E2EEF0E080818160808380818860BF
:105080008083F80180818E7F80838881806188831E
:10509000DF91CF911F910F910895E8EDF0E08081AD
:1050A0008F7E8083E7EDF0E080818160808384E003
:1050B00082BF81E08093F6030E940A280895E8EDFC
:1050C000F0E080818E7F80831092E200089510923C
:1050D000DA001092E10008951F920F920FB60F921E
:1050E00011242F933F934F935F936F937F938F93ED
:1050F0009F93AF93BF93EF93FF938091E10082FF63
:105100000BC08091E20082FF07C08091E1008B7F9D
:105110008093E1000E94CF2A8091DA0080FF19C0BD
:105120008091D80080FF15C08091DA008E7F809337
:10513000DA008091D90080FF94C080E189BD82E1CE
:1051400089BD09B400FEFDCF81E08093F7030E9482
:105150003D248091E10080FF19C08091E20080FF32
:1051600015C08091E2008E7F8093E2008091E20082
:1051700080618093E2008091D80080628093D800A3
:1051800019BC85E08093F7030E9451248091E100CF
:1051900084FF29C08091E20084FF25C080E189BDA1
:1051A00082E189BD09B400FEFDCF8091D8008F7DDA
:1051B0008093D8008091E1008F7E8093E100809100
:1051C000E2008F7E8093E2008091E2008160809314
:1051D000E2008091F303882309F449C084E08093BE
:1051E000F7030E945A248091E10083FF29C0809137
:1051F000E20083FF25C08091E100877F8093E1007A
:1052000082E08093F7031092F3038091E1008E7F98
:105210008093E1008091E2008E7F8093E200809194
:10522000E20080618093E20042E060E080E00E9462
:105230006C278091F00088608093F0000E944E24DB
:10524000FF91EF91BF91AF919F918F917F916F915E
:105250005F914F913F912F910F900FBE0F901F9034
:10526000189519BC1092F7030E944B2472CF8091BD
:10527000E30087FF02C083E0B2CF81E0B0CF1F928E
:105280000F920FB60F921124FF920F931F932F933B
:105290003F934F935F936F937F938F939F93AF93BE
:1052A000BF93CF93DF93EF93FF9309EE10E0F801E4
:1052B0008081C091EC00C795CC27C7958F70FC2EDC
:1052C000F82A1082C0EFD0E08881877F88837894A5
:1052D0000E948829F8011082888188608883CF2DF8
:1052E000CF70C083FF91EF91DF91CF91BF91AF91CC
:1052F0009F918F917F916F915F914F913F912F91EE
:105300001F910F91FF900F900FBE0F901F90189557
:10531000AAE2B0E0EEE8F9E20C949E2B88EF93E06D
:10532000FC0101962091F100208324E08030920757
:10533000B9F70E948E248091E80083FF38C08091E5
:10534000F8039091F9039A3090F5E92FF0E0E151DC
:10535000F24D0C94822B803889F0823841F580918F
:10536000FC038F70873018F58093E9008091EB0083
:1053700085FB882780F91092E90006C08091F4032C
:105380009091F503911182609091E800977F90933E
:10539000E8008093F1001092F1008091E8008E7790
:1053A00023C0811116C08091FA03813011F18091E0
:1053B000E80083FF0AC08091E800877F8093E800BF
:1053C0008091EB0080628093EB00AA96E3E00C945E
:1053D000BA2B823061F78091FA03882389F010920A
:1053E000E9008091E800877F8093E8000E94A02771
:1053F000DECF81E0933009F080E08093F503EFCFBA
:105400008091FC038F702FEF280F263080F6809359
:10541000E9002091EB0020FFE2CF933031F480913E
:10542000EB0080628093EB00DACF9091EB0090610B
:105430009093EB0021E030E0A90102C0440F551F1A
:105440008A95E2F74093EA001092EA008091EB001F
:105450008860E8CF8111ABCF1091FA031F7780915C
:10546000E3008078812B8093E3008091E800877FC0
:105470008093E8000E94A0278091E80080FFFCCF85
:105480008091E30080688093E30083E0111101C004
:1054900082E08093F7038BCF8058823008F087CF6B
:1054A0008091FA039091FB038C3D53E0950799F5A9
:1054B00083E08A838AE289834FB7F894DE011396EA
:1054C00020E03EE051E2E32FF0E05093570084915A
:1054D00020FF03C082958F703F5F8F708A30C8F0C5
:1054E000895C90E08D939D932F5F243161F74FBFCE
:1054F0008091E800877F8093E8006AE270E0CE0147
:1055000001960E94B7268091E8008B778093E8008F
:105510004ECF805DE6CF6091FC037091FD03AE013C
:105520004F5F5F4F0E94A125BC01892B09F43FCF3B
:105530008091E800877F8093E80089819A810E94AA
:105540001127E1CF803809F032CF8091E800877FC2
:105550008093E8008091F3038093F1001ECF8111C6
:1055600026CF9091FA03923008F021CF8091E80085
:10557000877F8093E8009093F3030E94A027809197
:10558000F303882331F084E08093F7030E946524BD
:105590000ECF8091E30087FDF6CF81E0F5CF08952F
:1055A000CF938091F703882399F08091E900C0910F
:1055B000EC00C795CC27C7958F70C82B1092E900D7
:1055C0008091E80083FD0E948829CF70C093E90094
:1055D000CF910895FC01CB012091F7032430B1F461
:1055E00021812F702093E90040E050E064E070E0FA
:1055F0000E94192681110BC09091E80095FD07C00B
:105600009091E8009E779093E800089582E00895D5
:10561000FC018091F703843091F481818F70809335
:10562000E9009091F3008091F200892B51F0809174
:10563000E8008E778093E8000E94BF27089582E0FB
:10564000089580E00895FC018091F703843059F4B7
:1056500081818F708093E9008091E80080FF03C012
:10566000CF010E94082B0895FC01CB012091F70384
:10567000243011F080E0089526812F702093E900F6
:105680002091E80022FFF6CF2091E80025FFF2CF1D
:1056900040E050E064E070E00E9468268091E800FD
:1056A00085FF02C081E008958091E8008B778093A8
:1056B000E800F8CFAA1BBB1B51E107C0AA1FBB1F04
:1056C000A617B70710F0A61BB70B881F991F5A958E
:1056D000A9F780959095BC01CD01089597FB072E01
:1056E00016F4009407D077FD09D00E945A2B07FCCE
:1056F00005D03EF4909581959F4F089570956195E2
:105700007F4F0895EE0FFF1F0590F491E02D09944F
:1057100069279627692778278727782708952F9262
:105720003F924F925F926F927F928F929F92AF9231
:10573000BF92CF92DF92EF92FF920F931F93CF937E
:10574000DF93CDB7DEB7CA1BDB0B0FB6F894DEBF15
:105750000FBECDBF09942A88398848885F846E843B
:105760007D848C849B84AA84B984C884DF80EE8085
:10577000FD800C811B81AA81B981CE0FD11D0FB68E
:10578000F894DEBF0FBECDBFED0108950F931F93B8
:10579000CF93DF938230910510F482E090E0E091A6
:1057A0000204F091030430E020E0B0E0A0E0309784
:1057B00099F42115310509F447C0281B390B243011
:1057C0003105C0F58A819B816115710571F1FB017D
:1057D00093838283FE0111C0408151810281138134
:1057E00048175907F8F04817590799F4109761F0CE
:1057F00012960C93129713961C933296CF01DF9159
:10580000CF911F910F910895009302041093030408
:10581000F4CF2115310519F04217530718F49A01F6
:10582000BD01EF01DF01F801C2CF90930304809323
:105830000204D0CFFE01E20FF31F81939193225017
:10584000310939832883DACF209100043091010493
:10585000232B41F420910201309103013093010484
:1058600020930004209100013091010121153105A0
:1058700041F42DB73EB74091040150910501241B1E
:10588000350B40910004509101044217530708F072
:10589000B5CF241B350B2817390708F4AFCFBC014F
:1058A0006E5F7F4F2617370708F4A8CF640F751F68
:1058B0007093010460930004FA01819391939ECF49
:1058C000CF93DF930097E9F0FC01329713821282A5
:1058D000C0910204D0910304DE0130E020E0209763
:1058E000A1F420813181820F931F20910004309117
:1058F00001042817390709F067C0F0930104E09309
:105900000004DF91CF910895DA01AE17BF0708F0C8
:1059100040C012964D915C9113979D014115510520
:1059200099F7D9011396FC93EE9312974D915D91DF
:10593000A40FB51FEA17FB0779F4808191810296C5
:10594000840F951FD90111969C938E938281938128
:1059500013969C938E931297B0E0A0E08A819B816E
:105960000097B9F5FE0181919191E80FF91F80919F
:105970000004909101048E179F0719F6109761F5A6
:105980001092030410920204D0930104C093000407
:10599000B8CFB383A28340815181840F951FA8178C
:1059A000B90771F44E5F5F4F8D919C911197480F2D
:1059B000591F5183408312968D919C9193838283CA
:1059C0002115310509F0ADCFF0930304E0930204F3
:1059D00098CFDE01EC01C2CF13961C921E92129753
:1059E000D3CFFB01DC0104C08D910190801921F41B
:1059F00041505040C8F7881B990B0895DC0101C045
:105A00006D9341505040E0F70895F999FECF92BD53
:105A100081BDF89A992780B50895A8E1B0E042E0E9
:105A200050E00C94492DDC01A40FB51F41505040AB
:105A300048F0CB01840F951F2E910E94242D4150D8
:105A40005040D0F70895262FF999FECF92BD81BD21
:105A5000F89A019700B4021639F01FBA20BD0FB6AC
:105A6000F894FA9AF99A0FBE08950396272F0E9488
:105A7000242D0E94232D252F0E94242D242F0C94A9
:105A8000242D0196272F0E94242D0C94232DDC0118
:105A9000CB01FC01F999FECF06C0F2BDE1BDF89A39
:105AA000319600B40D9241505040B8F70895F894E3
:105AB000FFCF94049404DB04DB0440055D05C304BC
:105AC000C3046205CF05E005E005FD1509161316B0
:105AD000131613161316131613161316131613167E
